:020000040800F2
:1000000078100020AD020008350B00080B0B00082B
:10001000310B000843050008AB0E0008000000008B
:10002000000000000000000000000000790B000844
:100030009D0A000800000000770B00087B0B0008F9
:10004000C7020008C7020008C7020008C70200086C
:10005000C7020008C7020008C7020008C70200085C
:10006000C7020008C7020008C7020008C70200084C
:10007000C7020008C7020008C7020008C70200083C
:10008000C7020008C7020008C7020008C70200082C
:10009000C7020008C7020008C7020008C70200081C
:1000A000C7020008C7020008C7020008C70200080C
:1000B0000D0C0008490C0008150D0008C7020008C7
:1000C000C7020008210B0008110B0008C702000836
:1000D000C7020008C7020008C7020008C7020008DC
:1000E000A10A0008C7020008C7020008C7020008EA
:1000F000C7020008C7020008C7020008C7020008BC
:10010000C7020008C7020008090E0008C70200085D
:10011000C7020008C7020008A90E0008C7020008AD
:100120007506000891060008B9060008D9060008FF
:1001300005070008C7020008C7020008C702000838
:10014000C7020008C7020008C7020008C70200086B
:10015000250700085107000800000000C70200083A
:10016000C7020008C70200080000000000000000ED
:10017000C7020008C7020008C7020008000000000C
:1001800000000000C7020008C7020008C7020008FC
:10019000C70200080000000000000000000000008E
:1001A000000000000000000000000000C70200087E
:1001B000C702000800000000C7020008000000009D
:1001C000000000000000000000000000000000002F
:1001D0000000000000000000C7020008C70200087D
:1001E000C7020008C7020008C7020008C7020008CB
:1001F0007D0700085908000869080008A1080008E0
:100200002D090008C70200085909000800F002F88B
:1002100000F03CF80AA090E8000C82448344AAF164
:100220000107DA4501D100F031F8AFF2090EBAE862
:100230000F0013F0010F18BFFB1A43F0010318471A
:1002400080570000A0570000103A24BF78C878C13A
:10025000FAD8520724BF30C830C144BF04680C60CC
:10026000704700000023002400250026103A28BF14
:1002700078C1FBD8520728BF30C148BF0B60704718
:100280001FB505F074FB1FBD10B510BD00F01FF9C0
:100290001146FFF7F5FF02F011FE00F03DF903B43F
:1002A000FFF7F2FF03BC00F045F900000948804762
:1002B00009480047FEE7FEE7FEE7FEE7FEE7FEE748
:1002C000FEE7FEE7FEE7FEE704480549054A064B60
:1002D000704700007D0B00080D020008780A00201E
:1002E00078100020780C0020780C002053EA020CD3
:1002F00000F069802DE9F04B4FF00006002B1FBF86
:10030000B3FA83F503FA05F424FA05F65E4012BF4A
:100310001643B2FA82F502FA05F4C5F120051EBFB4
:1003200022FA05FC44EA0C04203556EA044C4FEA54
:10033000144418BF641C4FF000084FF000099042AD
:1003400071EB030C39D3002919BFB1FA81F701FA17
:1003500007F6B0FA80F700FA07F6C7F120071EBFCC
:1003600020FA07FC46EA0C062037B6FBF4FCA7EBA4
:100370000507103F07F01F0BCBF120060CFA0BFB13
:100380002CFA06F644BFB3460026202FA4BF5E46D3
:100390004FF0000B5BEA060C08BF4FF0010B19EBA6
:1003A0000B09ABFB027C48EB0608C01B06FB02CC2A
:1003B0000BFB03CC71EB0C01C1E70B460246414637
:1003C0004846BDE8F08B13B54FF000004FF0000138
:1003D000AFF30080BDE81C407047032A40F2308034
:1003E00010F0030C00F0158011F8013BBCF1020F76
:1003F000624498BF11F801CB00F8013B38BF11F8F7
:10040000013BA2F1040298BF00F801CB38BF00F80D
:10041000013B11F0030300F02580083AC0F008808A
:1004200051F8043B083A51F804CBA0E80810F5E76E
:10043000121D5CBF51F8043B40F8043BAFF3008051
:10044000D20724BF11F8013B11F801CB48BF11F8C6
:10045000012B24BF00F8013B00F801CB48BF00F896
:10046000012B704710B5203AC0F00B80B1E818504E
:10047000203AA0E81850B1E81850A0E81850BFF48E
:10048000F5AF5FEA027C24BFB1E81850A0E818502D
:1004900044BF18C918C0BDE810405FEA827C24BF81
:1004A00051F8043B40F8043B08BF7047D20728BF0F
:1004B00031F8023B48BF11F8012B28BF20F8023B5E
:1004C00048BF00F8012B704770477047704775466A
:1004D00000F02CF8AE4605006946534620F00700B0
:1004E000854618B020B5FFF7EFFEBDE820404FF07D
:1004F00000064FF000074FF000084FF0000B21F00E
:100500000701AC46ACE8C009ACE8C009ACE8C009DA
:10051000ACE8C0098D46704710B50446AFF30080C3
:100520002046BDE81040FFF7BABE00000048704703
:10053000180A002001491820ABBEFEE72600020081
:10054000704700BFFEE700004049097800294AD003
:100550003F4991ED000ADFED3F0A80EE201A3E4947
:1005600081ED031A3D4991ED000ADFED3A0A80EE74
:10057000201A394981ED041A394991ED000ADFED5D
:10058000350A80EE201A344981ED051A01F10C007C
:100590000188344A118041885180001D0188918072
:1005A0004188D180001D01881181418851819FEDD2
:1005B0002E0A274981ED000A9FED2B0A274981ED7C
:1005C000000A9FED290A264981ED000A2749496959
:1005D00081F40041254A516100211C4A1170491ED5
:1005E000234A116030E01A4991ED000ADFED190A43
:1005F00080EE201A184981ED001A184991ED000A81
:10060000DFED140A80EE201A134981ED011A144916
:1006100091ED000ADFED0F0A80EE201A0E4981ED00
:10062000021A084601880F4A91814188D181001D34
:100630000188118241885182001D01889182418880
:10064000D18241F211111183704700003000002067
:100650003C0000200000FA44740900204000002003
:10066000440000208C09002000000000000002402F
:100670003400002010B5022001F076F928B10348BB
:1006800001F082FD022001F00FF910BD9C00002056
:1006900010B5202001F068F950B10021054801F0A3
:1006A000EFF80121034801F0F0F8202001F0FCF8F8
:1006B00010BD00001C64024010B54FF4007001F042
:1006C00053F930B1034801F0A7FD4FF4007001F079
:1006D000EBF810BDA600002010B54FF4005001F05B
:1006E00043F958B10021064801F0CAF80121044835
:1006F00001F0CBF84FF4005001F0D6F810BD000027
:100700004464024010B54FF4003001F02DF930B1CF
:10071000034801F0C9FD4FF4003001F0C5F810BDE9
:10072000B000002010B54FF4001001F01DF958B1D1
:100730000021064801F0A4F80121044801F0A5F8C1
:100740004FF4001001F0B0F810BD00006C640240DE
:1007500010B54FF0007001F007F958B100210648BC
:1007600001F08EF82921044801F08FF84FF0007055
:1007700001F09AF810BD00008064024010B52F48C7
:1007800001F0F2F8002857D000212D4803F03DF881
:1007900000212C4801F074F804212A4801F075F872
:1007A0002948006820B101281AD002283BD12FE047
:1007B0004FF40061254801F073FC23480168244888
:1007C00002F0C8FE4FF48061204801F067FC01216F
:1007D0001C4801F055F80121194803F016F822E0F1
:1007E0004FF48061194801F05BFC17480168184814
:1007F00002F0B0FE4FF48051164801F04FFC012189
:10080000104801F03DF801210D4802F0FEFF0AE01A
:100810004FF480510F4801F043FC0B4801680C482D
:1008200002F098FE00BF00BF07480068401C064960
:100830000860024801F038F810BD00000200001006
:10084000003800400866024004000020000002401A
:10085000090000200004024010B5024801F0D4FD58
:1008600010BD0000F800002010B5094801F0C5FDDA
:10087000084840780749097840EA0120064908807D
:100880000846008800F0F0FF044880ED000A10BD23
:10089000F80000202400002026000020280000206E
:1008A00010B5184801F060F858B31748008800EEFA
:1008B000100AB8EE400ADFED150A20EE200ADFED3F
:1008C000140A80EE201A134880ED001AD0ED000AB9
:1008D0009FED110A9FED111A01EE600A104880ED9C
:1008E000000A90ED000A02F02BFC0E49088001215D
:1008F0000D4800F0C5FF012000F0D6FE014800F0D1
:10090000D3FF10BD002000100E00002033335340F1
:1009100000F07F4520000020B81EB14252B8A64228
:100920001C000020100000205866024010B5084846
:1009300001F01AF850B10021064800F0A1FF012192
:10094000044800F0A2FF024800F0AEFF10BD000016
:10095000000002105866024010B54FF0905001F0B0
:1009600003F870B31521174800F000FF9FED160A39
:1009700010EE100A1549C1F80D009FED150A10EE92
:10098000100AC1F801009FED130A10EE100AC1F819
:1009900005009FED110A10EE100AC1F80900084683
:1009A000407C28B94FF400410C4801F077FB04E08B
:1009B0004FF40041094801F073FB4FF0905000F0F4
:1009C00073FF10BDE300002000002042C00900209A
:1009D000295C8F3EBC74133C0AD7233C00000240C4
:1009E00070B52DED0C8B0446B0EE408AF0EE608AB7
:1009F0000D4604F0004028B3E443284604F0D8FC38
:100A000041EC1C0B53EC1C2B51EC180B04F078FB45
:100A100041EC1A0B204604F0CBFC41EC1D0B9FED82
:100A20001D0B53EC102B04F06BFB41EC1C0B04F082
:100A300075FA41EC1B0B53EC1A2B04F009FD41EC49
:100A4000190B1FE0284604F0B3FC41EC1C0B53ECDF
:100A50001C2B51EC180B04F053FB41EC1A0B2046F5
:100A600004F0A6FC41EC1C0B9FED0A0B53EC102B81
:100A700004F046FB41EC1B0B53EC1A2B04F0E8FC92
:100A800041EC190BB0EE490AF0EE690ABDEC0C8B93
:100A900070BD00000000C0FFFFFFDF417047000095
:100AA00010B54FF4805001F0DDF8C0B10C4800687B
:100AB000401C0B49086000200A4908604FF400619F
:100AC000094801F0EBFA0121084800F0D9FE0121A4
:100AD000074802F09AFE4FF4805001F061F810BD13
:100AE00000000020040000200000024008660240D0
:100AF0000038004000220270491C7047002101703C
:100B000080F8411080F84310704700BFFEE70000F6
:100B100010B5024801F08DFD10BD0000F800002066
:100B200010B5024801F0F4FD10BD0000F8000020EF
:100B300000BFFEE77047F0B503460C4603F007011F
:100B4000C1F10700042801D9042001E0C1F1070028
:100B50000646081D072801D2002000E0C81E0546F1
:100B60000120B040401E2040A8400127AF407F1E1A
:100B700017403843F0BD7047704770471F48006802
:100B800040F470001D4908601D48006820F0010015
:100B9000401C1B49086000BF19480068C0F34000B2
:100BA0000028F9D016480830006820F003001449E6
:100BB0000831086000BF124808300068C0F38100A7
:100BC0000028F8D10E4800680E4908400C4908601A
:100BD00000200B49083108600B48091F08600020FD
:100BE0000749A03108604FF41F0005490C31086027
:100BF0004FF00060014980390860704788ED00E0DF
:100C000000380240FFFFF2FE0230030010B5012160
:100C1000880702F09FFF88B14FF40071084801F087
:100C20003FFA4FF40071064801F038FA01210548F7
:100C300002F07DFF0121880702F07EFF10BD000059
:100C4000000002400004004000B58FB00121284898
:100C500002F080FF002849D00021254802F067FFFC
:100C60001822244909A8FFF7FDFB234B0FCBCDE940
:100C70000723CDE90501214B0FCBCDE90323CDE9B6
:100C800001011F48C06800901D480EC81D4800F0B3
:100C9000C5FE1C4800F0FAFE01211B4800F0F0FDE3
:100CA0001A480068042805D018480068401C1749F5
:100CB000086006E00121164800F051FA00201349AF
:100CC000086001211048643800F0DAFD01210E4867
:100CD0003C3800F0D5FD01210B48143800F0D0FD60
:100CE00001F006FF0121024802F026FF0FB000BD0F
:100CF000000400405C0900204C0900203C09002051
:100D00002C090020BA000020806402401800002056
:100D10000020014010B52DED048B0121304802F078
:100D200019FF002859D02F480068401CC8BB2E4826
:100D3000D0F80D0000EE100A2C48D0ED000A30EE7D
:100D4000600A10EE101A084604F0A0FD41EC190BE1
:100D5000B0EE490AF0EE690A00F0C6F8B0EE408A3B
:100D6000F0EE608A9FED220B53EC102B51EC180B28
:100D700004F06CFC03D200201F49086029E01E48E3
:100D80000068401C1C49086008460068322820D1D1
:100D900000200860134908600121184802F0C7FECE
:100DA00017E0FFE70F480068B0F5FA6F11D114485B
:100DB000008B41F21111884209D10D2210491148CE
:100DC00001F0C0F80021064802F0B1FE01E0FFF793
:100DD000BBFB0121024802F0AFFEBDEC048B10BD4D
:100DE0000008004034000020C00900201C00002042
:100DF0009A9999999999C93F38000020000C0040B0
:100E00008C09002000F80F0810B50121204802F0DD
:100E1000A1FE90B31F48006800282FDB1D48006822
:100E2000B0F5FA6F2ADA1C48D0F80F0000EE100A6D
:100E30001A48D0ED000A30EE200A80ED000A16486C
:100E4000D0F8130000EE100A1548D0ED000A30EE7D
:100E5000200A80ED000A1048D0F8170000EE100AB2
:100E60001048D0ED000A30EE200A80ED000A094853
:100E70000068401C0749086004E007E000210448BE
:100E800002F055FE0121024802F056FE10BD00009E
:100E9000000C004034000020BA0000203C0000207C
:100EA0004000002044000020704700BFFEE7000023
:100EB00002480068C0F30220704700000CED00E01B
:100EC00010B5002804DB0A07130E054A135406E088
:100ED0000A07140E034A00F00F031B1FD45410BD61
:100EE00000E400E018ED00E02DED020B019820F089
:100EF000004001909DED000B02B070470B784268F6
:100F000063F3082242604B78826863F34102826097
:100F10008B78826863F3CB228260CA78521EC36AE0
:100F200062F31753C36270470021017041708170F2
:100F30000121C1707047816821F00801083181608A
:100F4000704701468868C0F3C00008B101207047AF
:100F50000020FCE7816821F00401091D81607047D1
:100F600001468868C0F3800008B101207047002066
:100F7000FCE7000002782649096862F30401244A6C
:100F8000116042782349D1F8041362F31341204AD7
:100F90001160817801F0040149B11146096821F01E
:100FA000805101F180511B4AC2F8041306E0184930
:100FB000096821F08051174AC2F804138178144A55
:100FC000126861F38F3212490A60C2781149D1F870
:100FD000041362F34D310E4A116002790D49D1F8C4
:100FE000041362F30B210A4A116042790949D1F8CE
:100FF000041362F3D751064A116082790549D1F88A
:10100000041362F39651034AC2F8041370470000B8
:1010100004230140002001400021017041708170D3
:10102000C1700171417181717047826861F308225A
:1010300082607047826861F34922826070478268EB
:1010400061F30002826070470246002013680B4083
:1010500003B900E00120704770B504460A290CDA94
:10106000206901EB41060725B540A84301EB410586
:1010700003FA05F5284320610FE0E068A1F10A05B5
:1010800005EB45060725B540A843A1F10A0505EB88
:10109000450503FA05F52843E0600D2A10DBE06AF8
:1010A000A2F10D0505EB85061F25B540A843A2F169
:1010B0000D0505EB850501FA05F52843E0621EE004
:1010C000072A0EDB206BD51F05EB85061F25B540D3
:1010D000A843D51F05EB850501FA05F528432063D4
:1010E0000DE0606B551E05EB85061F25B540A84336
:1010F000551E05EB850501FA05F52843606370BDB3
:101100000F290ADD836823F0004303F10043836065
:10111000836861F31B63836007E0836823F0004307
:101120008360836861F31B638360836862F31D736C
:1011300083607047D0F8802061F30002C0F88020FF
:101140007047D0F8802061F38A22C0F88020704771
:10115000D0F8802061F34922C0F88020704782686F
:1011600061F39E728260704750F8803F61F38403A0
:101170000360036862F3481340F880397047000049
:1011800010B50121034800F095F90021014800F055
:1011900091F910BD08002400426861F319624260B1
:1011A0007047000010B54FF40051024800F078FF7E
:1011B00010BD00000008024010B501460020CB1C05
:1011C000002202E09C5C6040521C0C2AFAD301F120
:1011D0000F03002202E09C5C6040521C0C2AFAD3F0
:1011E00011F81B4F60400C88C4F3072460408C78D2
:1011F00060404C88C4F3072460400C7960408C88C0
:10120000C4F3072460408C796040CC881B39C4F358
:101210000724604001F12303002202E09C5C60404F
:10122000521C042AFAD310BD0349096860F3071160
:10123000014A1160704700000838024003490968FC
:1012400060F38C21014A11607047000008380240A9
:101250000349096860F34F31014A1160704700008B
:1012600008380240012807D10749096821F03001F8
:101270003031054A116005E00349096821F0300169
:10128000014A116070470000A438024005282BD2A3
:10129000DFE800F0030A11182100154A126861F313
:1012A0000002134B1A6020E0114A126861F31042E9
:1012B0000F4B1A6019E00E4A126861F318620C4B6A
:1012C0001A6012E00A4A7032126861F30002084B99
:1012D00070331A6009E0064A7432126861F3000242
:1012E000034B74331A6000E000BF00BF704700007A
:1012F000003802402DE9FE4F04464FF00009CA466F
:10130000CB460020029001900025002600F076F9DF
:101310000090009820B1012812D002283FD112E09D
:1013200031480068C0F3803038B12F480068C0F3FE
:10133000003010B12D48206001E02D48206031E0E0
:101340002C4820602EE028489C380068C0F380506C
:10135000029025489C380068C0F3881922489C38C0
:10136000006800F00F0A20489C380068C0F3024073
:10137000214911F800B0029810B91D48019001E010
:101380001C4801900AFB0BFC0198A0FB0970014668
:10139000624600233846FEF7A9FF206002E01448A9
:1013A000206000BF00BF104898380068C0F30315E4
:1013B0001248465D2068F04060600B48983800682D
:1013C000C0F382250E48465D6068F040E060064844
:1013D00098380068C0F342350A48465D6068F040BE
:1013E000A060BDE8FE8F0000A0380240006CDC0267
:1013F00000127A000024F400A25900088259000863
:10140000925900089A59000810B501460020094B6E
:1014100003EB1142D2F8002801F01F040123A3407E
:101420001A4001F01F040123A3409A4200D000E0BB
:10143000012010BD0030024030B50024002500E03E
:10144000641C1120FFF7E0FF012802D0B4F5405FD3
:10145000F6D31120FFF7D8FF012801D0002500E0C6
:101460000125284630BD000010B501290FD1104BD1
:1014700003EB1042D2F8002800F01F040123A34020
:101480001A430B4C04EB1043C3F800280EE0084B42
:1014900003EB1042D2F8002800F01F040123A34000
:1014A0009A43034C04EB1043C3F8002810BD00001E
:1014B0000030024010B501290FD1104B03EB104250
:1014C000D2F8002800F01F040123A3401A430B4C5C
:1014D00004EB1043C3F800280EE0084B03EB104266
:1014E000D2F8002800F01F040123A3409A43034CC4
:1014F00004EB1043C3F8002810BD00000030024088
:1015000030B538B90F4C246824F4805404F5805465
:101510000C4D2C600B4C9C3C246860F39654094D98
:101520009C3D2C602C46246861F38E142C602C4664
:10153000246862F303042C602C46246863F312448D
:101540002C6030BDA03802401A48006820F001002D
:10155000401C1849086000BF16480068C0F34000EE
:101560000028F9D013480830006820F00300114922
:101570000831086000BF0F4808300068C0F38100E0
:101580000028F8D10B4800680B4908400949086059
:1015900000200849083108600848091F0860002039
:1015A0000449A03108604FF41F0002490C31086063
:1015B0007047000000380240FFFFF2FE02300300D7
:1015C0000D49096860F301010B4A116000BF00BFBB
:1015D00000BF00BF00BF00BF00BF00BF00BF00BF13
:1015E00000BF00BF00BF00BF00BF00BF00BF00BF03
:1015F00000BF00BF70470000083802400248006882
:10160000C0F381007047000008380240012802D072
:1016100002280ED106E0084A126861F30C32064B2C
:101620001A6007E0044A126861F31C72024B1A60E8
:1016300000E000BF00BF704700740040012802D0E6
:1016400002280ED106E0084A126861F30002064B38
:101650001A6007E0044A126861F31042024B1A60F4
:1016600000E000BF00BF70470074004009B90122CC
:1016700000E000221146012802D002280ED106E027
:10168000084A126861F34102064B1A6007E0054AF6
:10169000126861F35142034B1A6000E000BF00BFC3
:1016A0007047000000740040012802D0022810D1C9
:1016B00007E00949096821F00101491C064A116047
:1016C00008E00549096821F00201891C024A1160FD
:1016D00000E000BF00BF704704740040012802D042
:1016E00002280ED106E0084A126861F38202064B16
:1016F0001A6007E0044A126861F39242024B1A60D2
:1017000000E000BF00BF704700740040012802D015
:1017100002280ED106E0084A126861F3C502064BA2
:101720001A6007E0044A126861F3D542024B1A605E
:1017300000E000BF00BF704700740040012802D0E5
:1017400002280ED106E0084A126861F38712064BA0
:101750001A6007E0044A126861F39752024B1A605C
:1017600000E000BF00BF70470074004070B5054640
:101770000E4600246EE03948007830B1012814D0BC
:10178000022822D0032862D147E03448FFF7B6F997
:10179000285DAA2805D0324801683048FFF7AAF929
:1017A00002E001202D49087052E0285DDD2805D0B7
:1017B0002B4801682948FFF79DF905E002202749D9
:1017C0000870132081F8420042E0295D234890F818
:1017D000412090F84100401C204B83F84100581CE8
:1017E0008154401E90F84200401E194681F8420084
:1017F000084690F84200012807DB084690F84300AD
:10180000295D4840194681F84300144890F8420089
:1018100010B90320114908701AE0104890F84310DD
:10182000C07C814202D1285DBB2805D00C480168EC
:101830000A48FFF75FF909E00020084908700846E8
:1018400090F84120411C0748FEF7C7FD00E000BFAB
:1018500000BF641CB4428EDB70BD0000D3090020C1
:1018600068000020C009002001B200EE101AF8EE56
:10187000C00A9FED021A80EE810A70470000004303
:10188000026861F300020260704741607047002106
:101890000160416001814181017341738173C173B2
:1018A0000174417470470000B0F1805F04D920F0EA
:1018B0007041034A116001E002490860704700006E
:1018C000046602400464024001460022B1F1805FD8
:1018D00002D90648026801E00548026802EA0100F0
:1018E00008B1012070470020FCE7000000660240BC
:1018F0000064024002684BF6EF731A40026002680F
:101900000B891A4302604B7C026863F30D3202605C
:10191000CB7B026863F38B2202608B7B026863F3EC
:10192000092202604B7B026863F3C71202600B7BE3
:10193000026863F3861202600B7C026863F345124F
:1019400002604B89426863F30F0242600A6882605A
:101950004A68C26070471AB103680B43036002E033
:1019600003688B430360704701460022B1F1805F3A
:1019700002D90648026801E00548026802EA01004F
:1019800008B1012070470020FCE70000006602401B
:10199000006402400021026822F00102026000227D
:1019A000026042608260C260014640F2FF620A400B
:1019B000B2F5C16F0DD2CAB2083A1423B2FBF3F2EA
:1019C00093000F229A400D4B1B681A430B4B1A6071
:1019D00012E040F2FF620A40B2F5D16F0CD2CAB2F7
:1019E000083A1423B2FBF3F293000F229A40044BFF
:1019F0001B681A43024B1A607047000004640240DF
:101A000004660240D0F8002161F30002C0F8002112
:101A10007047026861F30602026070470FB410B5A8
:101A20000446AA20E41C04F8030C04F8020C00206D
:101A300004F8010C05982060099860600D98A0607A
:101A4000BDF818002083BDF828006083BDF8380079
:101A5000A0831298E060139820611498606109488F
:101A6000008800B2E083084800682062E41E204637
:101A7000FFF7A2FB84F82700BB2084F8280010BCE5
:101A80005DF814FB260000201C00002010B5044661
:101A900038480068642800D110BDD4F8030000EE77
:101AA000100A3548D0ED000AB4EE600AF1EE10FAE3
:101AB0003BD0D4F8070000EE100A3048D0ED000A01
:101AC000B4EE600AF1EE10FA2FD0D4F80B0000EE5D
:101AD000100A2B48D0ED000AB4EE600AF1EE10FABD
:101AE00023D0D4F80F0000EE100A2648D0ED000AEB
:101AF000B4EE600AF1EE10FA17D0D4F8130000EE3D
:101B0000100A2148D0ED000AB4EE600AF1EE10FA96
:101B10000BD0D4F8170000EE100A1C48D0ED000AD4
:101B2000B4EE600AF1EE10FA05D112480068401CCC
:101B30001049086016E054F8030F0F490860606808
:101B40000E490860A0680E490860E0680D49086009
:101B500020690D4908606069E41E0C490860002096
:101B60000449086003480068642801D1FFF71AFBA4
:101B700000BF91E7480000205000002054000020E2
:101B8000580000205C00002060000020640000205D
:101B90000021417241600121017201707047000013
:101BA0000149086070470000143C014001460020D4
:101BB0004868234A12688243214B1A601A1D126832
:101BC00082431B1D1A604A7A0AB30A782AB91A1F7F
:101BD000126802431B1F1A6006E0194A121D1268A0
:101BE0000243174B1B1D1A60154A083212688243C4
:101BF000134B08331A601A1D126882431B1D1A60AA
:101C00000A7A2AB91A1F126802431B1F1A6016E0CB
:101C10000A7A012A07D10A4A0C3212680243084B99
:101C20000C331A600BE0064A083212680243044B78
:101C300008331A601A1D126802431B1D1A60704790
:101C4000003C0140012905D1054A12680243044BBA
:101C50001A6004E0024A12688243014B1A6070471E
:101C6000003C0140014600200022064B1B6803EAAD
:101C70000102044B143B1B681A400AB1012000E02A
:101C800000207047143C014003200B49096801F013
:101C9000010109B100200EE007490968C1F3800184
:101CA00009B1012007E004490968C1F3001109B135
:101CB000022000E0032070470C3C024000B50246C1
:101CC0000323FFF7E1FF034603E0FFF7DDFF0346D1
:101CD000521E0BB9002AF8D102B90423184600BDE0
:101CE00003200B49096801F0010109B100200EE051
:101CF00007490968C1F3800109B1012007E00449DF
:101D00000968C1F3001109B1022000E00320704707
:101D10004C3C024000B502460323FFF7E1FF0346B7
:101D200003E0FFF7DDFF0346521E0BB9002AF8D18E
:101D300002B90423184600BD00F0E04120F0E04065
:101D400019B1B1F1805F07D102E0054A106004E0EB
:101D5000034A4032106000E000BF00BF704700003F
:101D60000C3C024070B504460D460326B4F1006FEA
:101D700016D31B48844213D81A48006820F001008B
:101D8000401C1849086025804FF48010FFF796FF2B
:101D900006461448006820F00100124908601DE062
:101DA0000F48401C844219D3B4F1016F16D20D487C
:101DB0004030006820F00100401C0A4940310860B2
:101DC00025804FF48010FFF7A5FF064605484030F8
:101DD000006820F00100034940310860304670BDC2
:101DE000FFFF0708103C02400848006820F0800010
:101DF00080300649086005484030006820F08000C7
:101E0000803002494031086070470000103C0240B9
:101E100003200B49096801F0010109B100200EE01F
:101E200007490968C1F3800109B1012007E00449AD
:101E30000968C1F3001109B1022000E003207047D6
:101E40000C3C024000B502460323FFF7E1FF0346C6
:101E500003E0FFF7DDFF0346521E0BB9002AF8D15D
:101E600002B90423184600BD10B50B46002105E059
:101E7000048823F81140801C4C1CA1B29142F7DB6E
:101E800010BD000030B504460325B4F1006F1CD32B
:101E90002148844219D82148006820F00200801CA3
:101EA0001E490860081D0460001F006820F0400003
:101EB00040300860C806FFF701FF05461748006874
:101EC00020F002001549086023E01348401C8442BA
:101ED0001FD3B4F1016F1CD210484030006820F0CD
:101EE0000200801C0D4940310860081D0460001F7D
:101EF000006820F0400040300860C806FFF70AFF85
:101F0000054606484030006820F002000349403191
:101F10000860284630BD0000FFFF0708103C024063
:101F200005480649086006480860034803494031EF
:101F3000086003480860704723016745043C02407D
:101F4000AB89EFCD2DE9F84F81468A4616464FF012
:101F50000308FFF7E5FFA9F1006000900098C70AA9
:101F60000098C0F3490BCBF58064A64200DC3446F0
:101F700070E04FF0006101EBC7204A143849FFF7C9
:101F800073FF00250BE00BEB0500354931F810001D
:101F90004FF6FF71884200D003E0681C85B2A5426D
:101FA000F1DB00BFA54239DA4FF00040FFF74AFFEE
:101FB0008046B8F1010F02D0B8F1020F03D114200E
:101FC000FFF7BAFE05E0B8F1040F02D10020BDE82A
:101FD000F88F4FF0006101EBC720FFF753FF8046F9
:101FE000B8F1030F01D00020F1E7002508E03AF82E
:101FF000150005EB0B011A4A22F81100681C85B286
:10200000A542F4DB4FF0006101EBC7204A141449EC
:1020100000F028F801280AD00020D8E722465146CF
:10202000484600F01FF8012801D00020CFE7A64263
:1020300000D110E07F1C4FF0000B0AEB440A09EBC3
:102040004409301B86B2B6F5806F02DD4FF4806420
:1020500000E034468DE700BFFFF7C6FE0120B6E77B
:102060002C0100202DE9F04105460E4617464FF0A1
:10207000030800240EE036F814102846FFF772FE1D
:102080008046B8F1030F02D00020BDE8F081AD1CFE
:10209000601C84B2BC42EEDB0120F6E7816270472F
:1020A000816170474FF6FF710160002181710171FC
:1020B00041710121C171704770B50A460021148831
:1020C000A3B233E003F001046CB304684E000325AF
:1020D000B540AC43046094794D00AC4005682C4396
:1020E0000460446801258D40AC4344604468157920
:1020F0008D402C43446084684E000325B540AC43BA
:102100008460D4794D00AC4085682C438460C468F9
:102110004E000325B540AC43C46054794D00AC403B
:10212000C5682C43C4605B104C1CA1B2002BC9DCF9
:1021300070BD0246002053690B400BB1012000E046
:1021400000207047F0B5002300244D07ED0E02FA81
:1021500005F3CD105DB1456A4E07F70E0F26BE4060
:10216000B5434562456A45EA030444620AE0056AEC
:102170004E07F70E0F26BE40B5430562056A45EAD5
:1021800003040462F0BD0000417801F07F01204AA1
:10219000116011460968827802F07F0241EAC2119B
:1021A0001B4A116011460968C27802F07F0241EAB9
:1021B0008231174A116011460968027902F07F02E4
:1021C00041EA4251124A116011460968427941EAD6
:1021D00002710F4A1160C17901F07F0191801146AF
:1021E000B1F90410027A02F07F0241EAC211084AF2
:1021F0009180114691ED000AB8EEC00ADFED050AA4
:1022000080EE201A81ED021A8988918170470000C2
:102210002C09002020F08548417801F07F01204AF8
:10222000116011460968827802F07F0241EAC2110A
:102230001B4A116011460968C27802F07F0241EA28
:102240008231174A116011460968027902F07F0253
:1022500041EA4251124A116011460968427941EA45
:1022600002710F4A1160C17901F07F01918011461E
:10227000B1F90410027A02F07F0241EAC211084A61
:102280009180114691ED000AB8EEC00ADFED050A13
:1022900080EE201A81ED021A898891817047000032
:1022A0003C09002020158648417801F07F01204A32
:1022B000116011460968827802F07F0241EAC2117A
:1022C0001B4A116011460968C27802F07F0241EA98
:1022D0008231174A116011460968027902F07F02C3
:1022E00041EA4251124A116011460968427941EAB5
:1022F00002710F4A1160C17901F07F01918011468E
:10230000B1F90410027A02F07F0241EAC211084AD0
:102310009180114691ED000AB8EEC00ADFED050A82
:1023200080EE201A81ED021A8988918170470000A1
:102330004C090020E0C5854809B9012300E00023CD
:10234000426863F3CF324260704709B9012300E06D
:102350000023026863F351420260704710B50446DF
:10236000206800F0EDFB204600F016FA01212068FD
:1023700000F05AF910BD0146486AC0B27047816248
:1023800070472DE9F04104460D4616461F460021D0
:102390002846FFF775FA002202212846FFF7DBFAEC
:1023A0006662A069A84201D1102100E000212185C8
:1023B000A069A84202D12068283001E020682430BA
:1023C0002062678504F120012846FFF793FA012275
:1023D00002212846FFF7BFFA01212846FFF750FAED
:1023E000BDE8F08121B9036862F38E33036003E036
:1023F000036862F3CF330360704710B5044620468C
:10240000E16900F009F810BD10B504462046A16945
:1024100000F002F810BD000070B505460C467C497E
:102420008C4201D102214EE0794914318C4201D114
:10243000202148E0764928318C4201D1491542E0FB
:1024400073493C318C4202D14FF400513BE070495A
:1024500050318C4202D14FF4003134E06C49643188
:102460008C4202D14FF400112DE0694978318C4241
:1024700002D14FF0007126E066498C4201D16649D5
:1024800021E0644914318C4202D163491E311AE0C3
:10249000604928318C4201D1604914E05D493C31EA
:1024A0008C4201D15E490EE05A4950318C4201D133
:1024B0005C4908E0574964318C4202D14FF08151A8
:1024C00001E04FF090510846FFF7FEF9002874D064
:1024D000002202212046FFF73EFA4D498C4201D1ED
:1024E00002214EE04A4914318C4201D1202148E0BA
:1024F000474928318C4201D1491542E044493C31D9
:102500008C4202D14FF400513BE0414950318C42A2
:1025100002D14FF4003134E03D4964318C4202D1A4
:102520004FF400112DE03A4978318C4202D14FF03E
:10253000007126E037498C4201D1374921E0354905
:1025400014318C4202D134491E311AE0314928310C
:102550008C4201D1314914E02E493C318C4201D1E9
:102560002F490EE02B4950318C4201D12D4908E012
:10257000284964318C4202D14FF0815101E04FF083
:1025800090510846FFF790F9AA69A24201D00122B2
:1025900000E00022114600222868FFF723FF0021F7
:1025A0002046FFF76DF9E868042807D0052806D013
:1025B000062828D0072828D126E028E000BF68890F
:1025C0002989401A6881688928B901222021286850
:1025D00000F0D9F816E029896868084468606889BD
:1025E000FF2802DDFF20288101E0688928812B89EE
:1025F000214628466A68FFF7C4FE01224021286868
:1026000000F0C1F802E000BF00E000BF00BF70BDF5
:102610000864024008660240020000100002001038
:102620000020001000000210026861F30002026046
:10263000704710B504464FF48071206800F08CF8A4
:1026400058B1132020754FF48071206800F082F893
:1026500000228021206800F096F84FF40071206875
:1026600000F07AF858B1132020754FF400712068FB
:1026700000F070F800228021206800F084F84FF408
:102680008061206800F068F858B1132020754FF47D
:102690008061206800F05EF800228021206800F050
:1026A00072F84FF40061206800F056F858B113201A
:1026B00020754FF40061206800F04CF80022802162
:1026C000206800F060F84FF48051206800F044F872
:1026D00058B1132020754FF48051206800F03AF86B
:1026E00000228021206800F04EF84FF4005120684D
:1026F00000F032F858B1132020754FF400512068D3
:1027000000F028F800228021206800F03CF810BD7D
:1027100010B50446E068082819D2DFE800F0040587
:10272000090A0E0F131400BF204600F01DF90FE038
:1027300000BF204600F098FA0AE000BF204600F0F3
:10274000B3F805E000BF204600F04BFA00E000BF00
:1027500000BF10BDC161704702469069084008B1D2
:10276000012070470020FCE7026861F3D342026059
:102770007047036823F0010303600261036861F39B
:102780000B23036070471AB103680B43036002E038
:1027900003688B43036070471CB504466846FFF727
:1027A00081FC042202213C48FFF7CCFC01208DF87B
:1027B00004008DF8050002208DF806008DF8070052
:1027C0000420009069463448FFF776FC0422032178
:1027D0003148FFF7B7FC01208DF804008DF80500A3
:1027E00002208DF806008DF8070008200090694649
:1027F0002948FFF761FC2948A06128481430E061AE
:10280000A069FFF7C7F8E069FFF7C4F804F12000FA
:10281000FFF73DF800212C20015501212D20015505
:1028200000212E2001552F20015530200155312047
:1028300001551021218504F12001A069FFF75AF804
:1028400004F12001E069FFF755F813211348EC303B
:10285000FFF7DFF812211148F030FFF7DAF8012115
:102860000E481C38FFF7CEF80D4A00212068FFF70C
:1028700080FF00221146206800F02AF90121094852
:10288000FFF75AFD01210748FFF75FFD00210548CA
:10289000FFF76AFF1CBD0000001C02401C660240DE
:1028A0003030F0C00058004070B504461021206858
:1028B000FFF752FF88B110212068FFF74BFF01227C
:1028C00020212068FFF75FFF204600F021F9608992
:1028D000002847D01120207544E080212068FFF7B0
:1028E0003BFF00B3002240212068FFF74CFF6089C6
:1028F000B8B1206800F082FA054600222946204639
:1029000000F02AFA208D102805D10122002120682C
:10291000FFF768FD26E0012211462068FFF762FDFF
:1029200020E00D2070BD20212068FFF715FFC8B101
:1029300020212068FFF70EFF204600F033F9102118
:102940002068FFF709FF18B110212068FFF702FF88
:10295000204600F0DDF80022F6212068FFF713FF83
:10296000012020610020DDE770B5044610212068B9
:10297000FFF7F2FE60B110212068FFF7EBFE204662
:1029800000F0C6F8608900286ED0112020756BE039
:1029900002212068FFF7E0FE68B163685A1C62609C
:1029A00019782068FFF7EBFC6089401E6081208960
:1029B000401E208158E080212068FFF7CDFE78B1CD
:1029C000208958B9608948B1206800F017FA054697
:1029D00000222946204600F0BFF945E00D2070BDD9
:1029E00004212068FFF7B8FE68B12068FFF7C3FC38
:1029F0006268511C616010706089401E608120898E
:102A0000401E208130E040212068FFF7A5FE60B124
:102A1000608940B920684068C0F3406020BB2068EE
:102A200000F0E5F920E00E20D9E720212068FFF72B
:102A300093FEC8B120212068FFF78CFE204600F0ED
:102A4000B1F810212068FFF787FE18B11021206827
:102A5000FFF780FE204600F05BF80022F621206898
:102A6000FFF791FE012020610020B8E72DE9F04139
:102A700004460D4616461F46DDF818800520E06026
:102A800000202061666067812075434600224FF474
:102A90000041204600F0C8F910B10120BDE8F081E6
:102AA000002201212068FFF79DFC4FF410532A46B5
:102AB0002046E16900F06FF9012290212068FFF7BC
:102AC00062FE012211462068FFF78CFC0020E5E73A
:102AD000836861F38A238360836862F309038360F8
:102AE000836823F4004303F50043836070470000CC
:102AF00008B54FF6FF700223034A90210090034867
:102B0000FFF7B4FF08BD000024000020F8000020FB
:102B100010B5044602212068FFF71EFE10B1002008
:102B20002168886201212068FFF716FE30B920680D
:102B3000806920F00100401C2168886110BD000000
:102B400010B504461348844208D101211248FEF70B
:102B5000B1FC00211048FEF7ADFC1AE00F4884429A
:102B60000AD101210C48401CFEF7A4FC00210A48B0
:102B7000401CFEF79FFC0CE00948844209D101216A
:102B80000548801CFEF796FC00210348801CFEF7D8
:102B900091FC10BD0054004015002000005800407A
:102BA000005C0040016849686FF3090102685160E8
:102BB0000168496821F480510268516001684968E0
:102BC00021F47F01026851600168496821F0807139
:102BD000026851600168496821F4806102685160AF
:102BE000704710B5044610212068FFF7B5FD20B1ED
:102BF00010212068FFF7AEFD34E008212068FFF7C0
:102C0000ABFD20B108212068FFF7A4FD2AE02021B8
:102C10002068FFF7A1FD28B320212068FFF79AFD67
:102C20000022FE212068FFF7AEFD2046FFF7BAFF25
:102C30002046FFF76DFF04212068FFF78DFD78B176
:102C40002068FFF798FB6268511C61601070208952
:102C5000002805DD6089401E60812089401E20819A
:102C600001202061002010BD10B50446102120680D
:102C7000FFF772FD70B1608938B92046FFF748FF51
:102C800010212068FFF766FD64E010212068FFF73F
:102C900061FD5FE008212068FFF75EFD20B108219B
:102CA0002068FFF757FD55E002212068FFF754FD2B
:102CB00078B1608900284DDD6168481C6060087843
:102CC000216888622089401E20816089401E6081C1
:102CD00040E004212068FFF73FFD80B160890028B3
:102CE00038DD2068FFF747FB6268511C6160107097
:102CF0006089401E60812089401E20812AE02021B9
:102D00002068FFF729FD28B320212068FFF722FD66
:102D10000022FE212068FFF736FD2046FFF742FF24
:102D20002046FFF7F5FE04212068FFF715FD78B176
:102D30002068FFF720FB6268511C616010702089D9
:102D4000002805DD6089401E60812089401E2081A9
:102D500001202061002010BDF8B504460E4615463E
:102D60006089FF280BDDFF20208100952189CAB2F0
:102D70004FF080733146206800F046F80AE0608921
:102D8000208100952189CAB24FF000733146206836
:102D900000F03AF8F8BDF8B504460F4616461D4651
:102DA0006089FF2811DDFF202081238939462046D4
:102DB0006268FFF7E6FA00952189CAB24FF0807386
:102DC0003146206800F020F810E0608920812389D6
:102DD000394620466268FFF7D4FA00952189CAB2C5
:102DE0004FF000733146206800F00EF8F8BD4168DE
:102DF00021F4804101F580414160704701464868F7
:102E0000C0F309007047000070B50446049D606877
:102E1000044E304041EA03062E43304340EA02406C
:102E2000606070BD009800FC2DE9F04104460F463B
:102E300015461E46B7F5004F0FD107E0301EA6F12C
:102E4000010603D112202075BDE8F08139462068C3
:102E5000FFF782FC0028F1D12EE027E005F0010009
:102E600058B110212068FFF777FC30B1102120689D
:102E7000FFF770FC11202075E6E705F0020070B145
:102E800020212068FFF768FC48B120212068FFF767
:102E900061FC2046FFF786FE10202075D4E7301E27
:102EA000A6F1010602D112202075CDE7394620682F
:102EB000FFF752FC0028D1D00020C5E701F064FDE7
:102EC00001F09EFC01F0D2FB01F0C2FD01F070FBAD
:102ED00001F0C4F801F05AF801F008F90A23494A50
:102EE00049494A4801F030FB01214848FEF7C8FC37
:102EF00001F02EF90123464A43494448143001F0B9
:102F000023FB01F059F90A23424A43493F4828303C
:102F100001F01AFB01213D482830FEF7B1FC01F019
:102F20007DF901233A4A3C4938483C3001F00CFB1A
:102F300001F0A8F90A23394A39493448503001F0E0
:102F400003FB012131485030FEF79AFC01F0CCF927
:102F500001232F4A32492D48643001F0F5FA01F07F
:102F6000F7F929232F4A30492848783001F0ECFA44
:102F700001F022FA04232D4A2D492E4801F0E4FAEB
:102F800001F04CFA01232C4A2C492A483C3001F02C
:102F9000DBFA012127483C30FEF772FC01F070FAA1
:102FA0000123274A27492348503001F0CDFA01F088
:102FB00099FA1523244A1C491E48783001F0C4FAB6
:102FC00001211C487830FEF75BFC01F099FE01F00E
:102FD000F1FE01F049FF01F039FE01F05BF801F06C
:102FE0007DFC01F037FB01F0B3FA01F051FD01F077
:102FF000D3FD01F001FE4FF400411448FFF750F8F3
:1030000000BFFEE79C000020044C00400864024022
:1030100008000020A600002004480040B000002066
:1030200004100140BA0000200444004009000020C0
:103030000C380040086602400E0000204C20014081
:103040001000002008740040E3000020000002404F
:103050002DE9F0470B4614464FF0000C00BF2C4AF8
:103060001268C2F302211D4626460A46C2F107092C
:10307000B9F1040F02D94FF0040901E0C2F10709C8
:10308000C84602F10409B9F1070F02D24FF0000956
:1030900001E0A2F103094F464FF0010909FA08F9CE
:1030A000A9F1010909EA050909FA07F94FF0010A2E
:1030B0000AFA07FAAAF1010A0AEA060A49EA0A091B
:1030C000CC4601466246002904DB15072E0E114D41
:1030D0006E5407E015072F0E0D4D0C3501F00F064D
:1030E000361FAF5500BF014600290DDB00BF00BFF2
:1030F00001F01F050122AA404D09AD0005F1E025B0
:10310000C5F8002100BF00BF00BFBDE8F087000088
:103110000CED00E000E400E000BF00F00702064B09
:1031200019684FF6FF031940044B0B4343EA022191
:10313000014B196000BF70470CED00E00000FA057C
:1031400010B52DED088BB0EE408AC448D0F80D00C4
:1031500000EE100A30EE480AC14880ED000ABF4870
:10316000D0F8010000EE100ABD48D0ED000A20EEB4
:10317000200ABC48D0ED000AB4EEE00AF1EE10FAE5
:1031800002DD90ED000A22E0B448D0F8010000EE24
:10319000100AB348D0ED000A20EE200AB148D0ED65
:1031A000000AF1EE600AB4EEE00AF1EE10FA04D281
:1031B00090ED000AB1EE400A09E0A848D0F80100FD
:1031C00000EE100AA648D0ED000A20EE200AA6481C
:1031D00080ED000AA148D0F8050000EE100AB5EE17
:1031E000C00AF1EE10FA75D09D4890ED000AF1EE9C
:1031F000040AB4EEE00AF1EE10FA0CD29B4890ED0E
:10320000000A9748D0ED000A9FED991A00EE810A56
:10321000964880ED000A9148D0F8050000EE100AAB
:103220009248D0ED000A20EE200A924880ED000A74
:103230009148006802F02AFB41EC190B8D480068A8
:1032400002F024FB41EC1B0BB0EE4B0AF0EE6B0AD4
:10325000FDF74AFEB0EE40AAF0EE60AA53EC192B3F
:1032600051EC1A0B02F0F2F939D2824890ED000AC3
:103270008148D0ED000AB4EEE00AF1EE10FA02DD6A
:1032800090ED000A14E07B4890ED000A7A48D0EDFA
:10329000000AF1EE600AB4EEE00AF1EE10FA04D290
:1032A00090ED000AB1EE400A02E0724890ED000A8B
:1032B000704880ED000A6948D0F8050000EE100A59
:1032C0006C48D0ED000A80EE801A684880ED001A44
:1032D00005E0FFE79FED690A664880ED000A5F4858
:1032E000D0F8090000EE100AB5EEC00AF1EE10FAAF
:1032F00061D0B1EE480A5A4880ED000A5748D0F82C
:10330000090000EE100A5648D0ED000A5C4890ED26
:10331000001A70EEC10A20EE200A5A48D0ED000AC9
:10332000B4EEE00AF1EE10FA02DD90ED000A2CE0B6
:103330004A48D0F8090000EE100A4948D0ED000ACA
:103340004F4890ED001A70EEC10A20EE200A4D4859
:10335000D0ED000AF1EE600AB4EEE00AF1EE10FAE8
:1033600004D290ED000AB1EE400A0EE03B48D0F8DE
:10337000090000EE100A3A48D0ED000A404890EDEE
:10338000001A70EEC10A20EE200A3F4880ED000AC4
:10339000334890ED000A3A48D0ED000A70EE600A1A
:1033A00090ED000A394890ED001A01EE200A3448E9
:1033B00080ED000A04E09FED310A334880ED000AF9
:1033C000294890ED000A2B48D0ED000A30EE200A83
:1033D0002D48D0ED000A30EE200A2D4880ED000A7D
:1033E00090ED000AF7EE080A30EE200AF0EE040A2B
:1033F000B4EEE00AF1EE10FA02DDB0EE040A17E0D6
:10340000234890ED000AF7EE080A30EE200AF6EEA7
:10341000000AB4EEE00AF1EE10FA02D2B6EE000AAB
:1034200006E01B4890ED000AF7EE080A30EE200A8D
:10343000184880ED000A90ED000ADFED170A80EED3
:10344000201A9FED160A21EE000ABCEEC00A10EE0B
:10345000100A80B2BDEC088B10BD0000C00900202E
:103460006C000020800000208C00002074000020F0
:103470000AD7A33B90000020840000200000000039
:103480007000002088000020940000209800002098
:10349000780000207C0000203333534000F07F454B
:1034A00010B500228B071C0F0F2303FA04F28B10B8
:1034B00033B1012B13D0022B23D0032B45D132E0A3
:1034C000234B1B689343224C236023461B688C07C5
:1034D000240F00FA04F423431D4C236036E01C4BF8
:1034E0001B1D1B6893431A4C241D236023461B6835
:1034F0008C07240F00FA04F42343154C241D236089
:1035000024E0134B08331B689343114C08342360A9
:1035100023461B688C07240F00FA04F423430C4C49
:103520000834236012E00A4B0C331B689343084CA9
:103530000C34236023461B688C07240F00FA04F424
:103540002343034C0C34236000E000BF00BF10BDD8
:103550000838014070B52DED088B04460D4625B1A5
:10356000012D68D0022D65D1CBE02078000661786E
:1035700040EA0140A17840EA0120E17808439649F9
:1035800008604FF400419548FEF7D3FD48B39448D6
:1035900090ED030A10EE101A084602F077F941EC9C
:1035A000190B8D49086801219FED8E0BFDF718FA64
:1035B000B0EE40BAF0EE60BA9FED8C0B53EC102BDE
:1035C00051EC1B0B01F044FF41EC1A0B53EC192B8F
:1035D00002F072F841EC180B01F0ACFC7E49C860B7
:1035E00028E07F4890ED000A10EE101A084602F01D
:1035F0004DF941EC190B7849086810219FED790BC2
:10360000FDF7EEF9B0EE40BAF0EE60BA9FED770B41
:1036100053EC102B51EC1B0B01F01AFF41EC1A0B71
:1036200053EC192B02F048F841EC180B01F082FC26
:103630006949C860CBE020780006617840EA014023
:10364000A17840EA0120E1780843634948604FF4DB
:1036500000416248FEF76DFD48B3614890ED040AF1
:1036600010EE101A084602F011F941EC190B5A49F4
:10367000486801219FED5B0BFDF7B2F9B0EE40BA4F
:10368000F0EE60BA9FED590B53EC102B51EC1B0B75
:1036900001F0DEFE41EC1A0B53EC192B02F00CF892
:1036A00041EC180B01F046FC4B49086128E04C48FE
:1036B00090ED010A10EE101A084602F0E7F841EC0E
:1036C000190B4549486810219FED460BFDF788F915
:1036D000B0EE40BAF0EE60BA9FED440B53EC102B05
:1036E00051EC1B0B01F0B4FE41EC1A0B53EC192BFF
:1036F00001F0E2FF41EC180B01F01CFC36490861B7
:1037000065E020780006617840EA0140A17840EA4F
:103710000120E1780843304988604FF400412F4888
:10372000FEF707FD48B32E4890ED050A10EE101A7B
:10373000084602F0ABF841EC190B274988680121D3
:103740009FED280BFDF74CF9B0EE40BAF0EE60BAF1
:103750009FED260B53EC102B51EC1B0B01F078FE68
:1037600041EC1A0B53EC192B01F0A6FF41EC180B9E
:1037700001F0E0FB1849486128E0194890ED020A81
:1037800010EE101A084602F081F841EC180B1249AD
:10379000886810219FED130BFDF722F9B0EE40BAB7
:1037A000F0EE60BA9FED110B53EC102B51EC1B0B9C
:1037B00001F04EFE41EC1A0B53EC182B01F07CFF8C
:1037C00041EC190B01F0B6FB0349486100BF00BF93
:1037D000BDEC088B70BD00005C09002000000240B9
:1037E00074090020000000000000144000000000E8
:1037F0000000F03F0021017041708170C1700171C3
:10380000417181710121C1717047026861F38612B3
:1038100002607047426861F3000242607047C2690B
:1038200022F40062C2610A7862B9026822F400429E
:103830000260026822F480420260026822F4806220
:10384000026036E00A78012A0ED1026822F40042B2
:103850000260026822F480420260026822F4806200
:1038600002F58062026024E00A78022A0ED1026822
:1038700022F4004202F500420260026822F4804213
:103880000260026822F48062026012E00A78032A71
:103890000FD1026822F4004202F500420260026881
:1038A00022F4804202F580420260026822F48062C3
:1038B0000260CB79026863F3492202604A78012AE8
:1038C00009D1CA79012A06D1026822F4807202F570
:1038D0008072026003E0026822F4807202604B781A
:1038E000026863F3820202608A78072A0DDC42686C
:1038F00022F400724260426822F4807242608B7847
:10390000026863F3C502026020E08A780A2A0ED1B9
:10391000426822F4007202F500724260426822F4AA
:1039200080724260026822F0380202600EE0426853
:1039300022F400724260426822F4807202F58072C2
:1039400042608A78036862F3C5030360CB7802683B
:1039500063F3C71202600B79026863F3CB22026043
:103960004B79026863F3410202608B79026863F36A
:1039700000020260704700002DE9FC5F0024002572
:103980000026A146A246A34600200190FDF736FE80
:103990000090009820B1012814D0022841D115E0F0
:1039A0002B480068C0F3803040B129480068C0F35C
:1039B000003018B127482849086002E02748264906
:1039C000086032E02648244908602EE020489C38F0
:1039D0000068C0F380591E489C380068C0F3881402
:1039E0001B489C38006800F00F0519489C38006897
:1039F000C0F302401B490E5CB9F1000F02D1DFF8A1
:103A00005CA001E0DFF858A005FB06FCAAFB0470EF
:103A10000146624600233846FCF768FC0E49086000
:103A200003E00E480C49086000BF00BF0848983802
:103A30000068C0F3031B0C4810F80B000190064807
:103A400000680199C84004490860BDE8FC9F000077
:103A5000A0380240006CDC022C00002000127A002A
:103A60000024F400B8590008A8590008042808D117
:103A70004FF0E021096941F004014FF0E0221161AB
:103A800007E04FF0E021096921F004014FF0E02246
:103A900011617047C1628262436923F001035B1CBC
:103AA000436170478B79426C63F30C3242640B784C
:103AB000426C63F3070242644B79426C63F38A22DF
:103AC00042640B79426C63F3CB2242644B78426CC4
:103AD00063F34D324264CB78426C63F38E324264BE
:103AE0008B78426C63F309224264704710B50B4631
:103AF000082B0FD2DFE803F0040E060E080E0A0CA6
:103B0000426308E0826306E0C26304E0026402E00C
:103B1000426700E000BF00BF10BD026861F30922E8
:103B200002607047026861F3061202607047026823
:103B300061F3000202607047CA4302617047012AC4
:103B400003D1C3680B43C36003E012B9C3688B435E
:103B5000C36070470246002013690B4023B1D3684D
:103B60000B400BB1012000E00020704710B50B4660
:103B7000082B1ED2DFE803F0041D091D0E1D1318CB
:103B8000846962F3C304846114E0846962F3CB2422
:103B900084610FE0C46962F3C304C4610AE0C469CC
:103BA00062F3CB24C46105E0046F62F3C3040467CD
:103BB00000E000BF00BF10BD2DE9F0410025002648
:103BC000002701F108035C1C92F801C00CFA03FC09
:103BD0001FFA8CF592F802C00CFA04FC1FFA8CF65E
:103BE000D0F804804FF0010C0CFA04FC28EA0C0811
:103BF000C0F80480D0F804C04CEA060CC0F804C039
:103C0000D0F804C04FF0010808FA03F82CEA080CB9
:103C1000C0F804C0D0F804C04CEA050CC0F804C0D9
:103C20000F46082F32D2DFE807F004310D3116318C
:103C30001F2892F80080D0F818C068F3061CC0F85E
:103C400018C024E092F80080D0F818C068F30E3C49
:103C5000C0F818C01BE092F80080D0F81CC068F3D0
:103C6000061CC0F81CC012E092F80080D0F81CC0FE
:103C700068F30E3CC0F81CC009E092F80080D0F850
:103C800070C068F3061CC0F870C000E000BF00BF41
:103C90004FF0010C0CEB41034FF0030C0CEB410413
:103CA00092F803C00CFA03FC1FFA8CF592F804C0DA
:103CB0000CFA04FC1FFA8CF64FF0010C0CFA04FC11
:103CC000D0F8208028EA0C08C0F82080D0F820C066
:103CD0004CEA060CC0F820C04FF0010808FA03F8BF
:103CE000D0F820C02CEA080CC0F820C0D0F820C0C2
:103CF0004CEA050CC0F820C04B004FF0020C0CEB56
:103D0000410492F805C04FEA41080CFA08FC1FFA7A
:103D10008CF592F806C04FF0020808EB41080CFA47
:103D200008FC1FFA8CF64FF0010C0CFA04FCD0F8DA
:103D3000208028EA0C08C0F82080D0F820C04CEA87
:103D4000060CC0F820C04FF0010C0CFA03FCD0F8B0
:103D5000208028EA0C08C0F82080D0F820C04CEA67
:103D6000050CC0F820C0BDE8F08110B50B46082B4B
:103D70001ED2DFE803F0041D091D0E1D131884690F
:103D800062F38204846114E0846962F38A248461AA
:103D90000FE0C46962F38204C4610AE0C46962F39B
:103DA0008A24C46105E0046F62F38204046700E0C2
:103DB00000BF00BF10BD426C61F3CF324264704758
:103DC000026861F3410202607047026861F3820297
:103DD00002607047026861F3C71202607047426870
:103DE00061F3061242607047026B61F30F020263D7
:103DF0007047826861F3C71282607047426961F35D
:103E0000861242617047426961F3C712426170478E
:103E1000C26861F34D32C260704741B9426922F411
:103E200080724261426922F40072426127E00129F6
:103E30000AD1426922F4807202F5807242614269BD
:103E400022F4007242611AE002290AD1426922F486
:103E500080724261426922F4007202F5007242618E
:103E60000DE003290BD1426922F4807202F58072C1
:103E70004261426922F4007202F5007242617047A9
:103E80002DE9FF4704468846164699466846FDF7E1
:103E900031FA2448844202D02348844201D1029F4F
:103EA00000E0039F07EB87004000B0FBF8F50A2015
:103EB000B5FBF0F100FB1150052803D20A20B5FB39
:103EC000F0F503E00A20B5FBF0F0451CA06865F3AF
:103ED0000F00A06056B9E06820F0805000F18050DB
:103EE000E060E06820F48050E06014E0012E08D12A
:103EF000E06820F08050E060E06820F48050E060EE
:103F000009E0E06820F08050E060E06820F4805034
:103F100000F58050E060206969F30D302061BDE854
:103F2000FF870000001001400014014041B9C26841
:103F300022F40072C260C26822F48062C2601AE099
:103F400001290AD1C26822F40072C260C26822F458
:103F5000806202F58062C2600DE002290BD1C26866
:103F600022F4007202F50072C260C26822F480621C
:103F700002F58062C2607047C26861F38202C2606B
:103F80007047C26861F3C302C26070470EB501A8F2
:103F9000FEF788F803208DF80A000120019001A99E
:103FA0002C48FEF789F86846FCF7BEFF00208DF824
:103FB00000008DF801008DF8020001208DF803004B
:103FC00069462548FCF79AFF00212348FDF7E4F8ED
:103FD0000723012208212048FDF73EF80022114660
:103FE0001D48FDF78DF801211B48FDF71EF8012142
:103FF0001948FDF71FF8042203211748FDF7B4F80C
:1040000000211548FDF7A4F800211348FDF799F8A1
:1040100001211148FDF78EF801210F48FDF70FF837
:1040200000BF40210C48FDF70FF80028F9D00A48DE
:10403000FCF781FF00BF0848FCF783FF0028FAD196
:104040000548FCF787FF00BF0348FCF789FF0028FD
:10405000FAD10EBD00040240002001401CB5FDF75E
:104060008FF86846FCF7D8FF00208DF800000E207E
:104070008DF8010000208DF802008DF803008DF806
:1040800004008DF805008DF806006846FCF772FF05
:104090001CBD00001CB56846FEF704F81020009017
:1040A00003208DF8060000208DF8050069460E48B3
:1040B000FEF702F801210846FDF710FB0721012059
:1040C000FDF724FB00210120FDF738FB0121084604
:1040D000FDF7CCFA01210846FDF798FA01210846C0
:1040E000FDF7ACFA1CBD00000000024000B585B031
:1040F0001648FDF74FFC6846FDF7C9FB0020ADF8F8
:1041000008008DF80F0001208DF80D0000208DF8BB
:104110000E008DF80C0001208DF811008DF81000B4
:1041200069460A48FDF7E6FB012108480838FDF713
:1041300069FC1E210548FC30FDF76BFC01220221C1
:104140000248FDF708FC05B000BD0000086402400D
:1041500000B585B01748FDF71DFC6846FDF797FBD5
:104160001020ADF8080000208DF80F0001208DF818
:104170000D0000208DF80E008DF80C0001208DF848
:10418000110000208DF8100069460A48FDF7B2FBC7
:10419000012108481C38FDF735FC1F210548EC308B
:1041A000FDF737FC012202210248FDF7D4FB05B0E0
:1041B00000BD00001C64024000B585B01648FDF744
:1041C000E9FB6846FDF763FB0020ADF808008DF8B9
:1041D0000F0001208DF80D0000208DF80E008DF8E5
:1041E0000C0001208DF811008DF8100069460A4876
:1041F000FDF780FB012108483038FDF703FC1C2146
:104200000548DC30FDF705FC012202210248FDF7DC
:10421000A2FB05B000BD00003064024000B585B0CF
:104220001748FDF7B7FB6846FDF731FB1020ADF8E6
:10423000080000208DF80F0001208DF80D000020EF
:104240008DF80E008DF80C0001208DF81100002073
:104250008DF8100069460A48FDF74CFB012108481B
:104260004438FDF7CFFB1D210548CC30FDF7D1FBCD
:10427000012202210248FDF76EFB05B000BD0000DF
:104280004464024000B585B01648FDF783FB6846DC
:10429000FDF7FDFA0020ADF808008DF80F000120B1
:1042A0008DF80D0000208DF80E008DF80C00012017
:1042B0008DF811008DF8100069460A48FDF71AFBC9
:1042C000012108485838FDF79DFB18210548BC30EE
:1042D000FDF79FFB012202210248FDF73CFB05B0E0
:1042E00000BD00005864024000B585B01748FDF7D6
:1042F00051FB6846FDF7CBFA1020ADF8080000200E
:104300008DF80F0001208DF80D0000208DF80E00B3
:104310008DF80C0001208DF8110000208DF81000A0
:1043200069460A48FDF7E6FA012108486C38FDF7AE
:1043300069FB19210548AC30FDF76BFB0122022116
:104340000248FDF708FB05B000BD00006C640240A8
:1043500000B585B01748FDF71DFB6846FDF797FAD5
:104360001020ADF8080000208DF80F0001208DF816
:104370000D0000208DF80E008DF80C0001208DF846
:10438000110000208DF8100069460A48FDF7B2FAC6
:10439000012108488038FDF735FB1B2105489C307A
:1043A000FDF737FB012202210248FDF7D4FA05B0E0
:1043B00000BD00008064024000B585B01648FDF7DE
:1043C000E9FA6846FDF763FA0020ADF808008DF8B9
:1043D0000F0001208DF80D0000208DF80E008DF8E3
:1043E0000C0001208DF8110000208DF810006946A6
:1043F0000948FDF77FFA012107480838FDF702FB5D
:104400000C210548FC30FDF704FB01220221024883
:10441000FDF7A1FA05B000BD0866024000B585B001
:104420001648FDF7B7FA6846FDF731FA0020ADF8F7
:10443000080001208DF80F008DF80D008DF80E009A
:1044400000208DF80C0001208DF811008DF810006F
:1044500069460A48FDF74EFA012108484438FDF73D
:10446000D1FA05210548CC30FDF7D3FA012202210B
:104470000248FDF770FA05B000BD00004466024036
:1044800000B585B01648FDF785FA6846FDF7FFF9D7
:104490001020ADF8080001208DF80F008DF80D00F8
:1044A0008DF80E0000208DF80C0001208DF8110011
:1044B00000208DF8100069460948FDF71BFA01211C
:1044C00007485838FDF79EFA06210548BC30FDF72D
:1044D000A0FA012202210248FDF73DFA05B000BD15
:1044E0005866024000B585B01648FDF753FA684695
:1044F000FDF7CDF90020ADF808008DF80F00012080
:104500008DF80D0000208DF80E008DF80C000120B4
:104510008DF811008DF8100069460A48FDF7EAF998
:10452000012108488038FDF76DFA1A2105489C30B2
:10453000FDF76FFA012202210248FDF70CFA05B0DF
:1045400000BD00008066024043608160C260704729
:1045500000B585B003A8FDF7A5FD00208DF8120079
:104560004FF48050039001208DF8110003A90F48EB
:10457000FDF7A2FD0C210020FEF792FF6846FDF733
:1045800007FB01208DF8090000208DF800004FF492
:104590008050019001208DF808006846FDF706FB69
:1045A00001210803FDF74EFB05B000BD00000240ED
:1045B0001CB56846FDF776FD4FF400512248FDF723
:1045C0006DFD4FF480512148FDF768FD4FF40E4119
:1045D0001F48FDF763FD02208DF8070000208DF8CD
:1045E000040001208DF806004003009000208DF8A3
:1045F000050069461448FDF75FFD02208DF80700AD
:1046000000208DF8040001208DF8060000030090C2
:1046100000208DF8050069460C48FDF74DFD02208D
:104620008DF8070000208DF8040001208DF80600A9
:104630004FF40E40009000208DF8050069460448B4
:10464000FDF73AFD1CBD00000008024000040240D6
:104650000000024010B50348034908600846FDF712
:104660007DFE10BD00580040F800002070B503200A
:10467000FEF752FDFCF71CFC054600221146FCF734
:104680005AFA044621466FF00B00FCF719FCFCF7C0
:104690000FFC054600221146FCF74DFA0446214660
:1046A0006FF00A00FCF70CFCFCF702FC0546002248
:1046B0001146FCF740FA044621466FF00900FCF76A
:1046C000FFFBFCF7F5FB054600221146FCF733FA29
:1046D000044621466FF00400FCF7F2FBFCF7E8FB10
:1046E000054600221146FCF726FA044621466FF0E3
:1046F0000300FCF7E5FBFCF7DBFB05460022114657
:10470000FCF719FA044621466FF00100FCF7D8FBCC
:10471000FCF7CEFB054600220F21FCF70CFA0446FD
:1047200021464FF0FF30FCF7CBFB002211461C2046
:10473000FEF78EFC002211461D20FEF789FC0022A8
:1047400011461E20FEF784FC002211462120FEF7B0
:104750007FFC002211462220FEF77AFC002211463F
:104760002820FEF775FC002211463220FEF770FC6F
:10477000002211463620FEF76BFC0022114638203D
:10478000FEF766FC002211463920FEF761FC00228C
:1047900011463A20FEF75CFC002211463B20FEF752
:1047A00057FC002211463C20FEF752FC0022114625
:1047B0004420FEF74DFC002211464520FEF748FC40
:1047C000002211466C20FEF743FC002211466D20AA
:1047D000FEF73EFC002211466E20FEF739FC002257
:1047E00011466F20FEF734FC002211467020FEF7C0
:1047F0002FFC002211467220FEF72AFC70BD00003B
:1048000010B501214FF44010FCF72EFE0121304875
:10481000FCF72AFE01212E48401CFCF725FE012151
:104820002B48801DFCF720FE012129481530FCF79C
:104830001BFE012126481730FCF716FE01218805D2
:10484000FCF712FE01212348FCF70EFE012121484E
:10485000401CFCF709FE01211E48801CFCF704FEE9
:1048600001211C48C01CFCF7FFFD012119480D3037
:10487000FCF7FAFD012117481030FCF7F5FD012186
:1048800014481130FCF7F0FD012112481230FCF7FA
:10489000EBFD01210F481530FCF7E6FD01210D4825
:1048A0001C30FCF7E1FD01214FF48800FCF7DCFD32
:1048B00001210948FCF7D8FD01210748001DFCF73C
:1048C000D3FD012104480A30FCF7CEFD10BD0000E5
:1048D0000100300001004000040044001FB502A8A0
:1048E000FDF7E0FB6846FEF785FF0622012124481C
:1048F000FDF728FC02208DF80F0000208DF80C0039
:1049000002208DF80E00029000208DF80D0002A903
:104910001B48FDF7D1FB05220E211948FDF712FCBB
:1049200002208DF80F0000208DF80C0002208DF879
:104930000E004003029000208DF80D0002A91048DF
:10494000FDF7BAFB01208DF800008DF80100002072
:104950008DF804008DF8030004208DF8020000207B
:104960008DF805008DF8060001208DF807006946D6
:104970000448FEF754FF01210248FEF74BFF1FBD1C
:10498000000402400038004010B5FCF7DDFD0121B5
:104990002B48FCF769FD2B48006920F00700401CFC
:1049A000284908612848006820F00300401C264977
:1049B000086001210420FCF769FC00BF2348FCF7D4
:1049C00023FD0128FAD101210846FCF75FFC00BF56
:1049D000FCF732FD0028FBD001210020FCF756FC3B
:1049E00000BF0120FCF710FD0128FAD102230122AB
:1049F00040211046FCF784FD01210220FCF746FC13
:104A000000BF1920FCF700FD0128FAD10020FCF7B7
:104A10000BFC0420FCF71CFC0420FCF70FFC01201D
:104A2000FCF720FC0220FCF7CBFD00BFFCF7E6FD05
:104A30000228FBD10020FCF715FCFEF79DFF10BDFE
:104A40001C00400000700040603C02400100740007
:104A50001FB500246846FCF74DFC0198C4080020EF
:104A6000FFF704F80848B4FBF0F00849086000209C
:104A70004FF0E02188616FF07F404861084600698F
:104A800040F0010008611FBD40420F0014000020EB
:104A900000B587B005A8FDF705FB012208213C48B9
:104AA000FDF750FB4FF48070059002208DF81A003E
:104AB00000208DF818008DF8190002208DF81B00D9
:104AC00005A93348FDF7F8FA00213248FFF72AF824
:104AD00000213048FFF721F800212E48FFF784F924
:104AE00000212C48FFF776F9182209212948FEF702
:104AF000D1FF00212748FFF77CF900212548FFF767
:104B00006EF901212348FFF75BF907208DF80C00AF
:104B100001208DF8110000208DF812008DF80F0093
:104B20008DF810008DF80D008DF80E0003AA0021FD
:104B30001848FFF741F8052200211648FEF7D6FF76
:104B4000002211461348FFF711F8002211461148C0
:104B5000FFF70BF900208DF80A008DF807008DF89B
:104B600005008DF808008DF809008DF806008DF815
:104B7000040001A90748FEF795FF01210548FFF74A
:104B80001AF901210348FEF7D2FF07B000BD00006B
:104B9000000002400000014010B500214FF08040AD
:104BA000FEF7C0FF00214FF08040FEF7B6FF002166
:104BB0004FF08040FFF70EF9FF2240F2E7314FF04F
:104BC0008040FEF767FF00214FF08040FFF711F9AA
:104BD00000214FF08040FFF702F901218807FFF71D
:104BE000F4F801218807FEF7A2FF01221146900781
:104BF000FEF7A5FF10BD000010B500211248FEF71A
:104C000091FF00211048FEF788FF00210E48FFF7B2
:104C1000E1F80F2211460C48FEF73CFF00210A483C
:104C2000FFF7E7F800210848FFF7D9F80121064807
:104C3000FFF7CBF801210448FEF779FF0122114666
:104C40000148FEF77CFF10BD000400401CB568461B
:104C5000FDF728FA082200212748FDF773FA022001
:104C60008DF8070000208DF8040002208DF8060062
:104C70000120009000208DF8050069461E48FDF7D0
:104C80001BFA082201211C48FDF75CFA02208DF86E
:104C9000070000208DF8040002208DF80600009027
:104CA00000208DF8050069461348FDF705FA00233A
:104CB00002224FF4E1211148FFF7E2F801210F48E9
:104CC000FFF75FF901210D48FFF756F901210B4865
:104CD000FFF72CF901210948FFF795F80121074852
:104CE000FFF78CF800210548FFF797F801210348EA
:104CF000FFF78EF81CBD000000000240004C004091
:104D00001CB56846FDF7CEF9072206212748FDF7B6
:104D100019FA02208DF8070000208DF80400022007
:104D20008DF806004020009000208DF805006946AF
:104D30001E48FDF7C1F9072211461C48FDF702FA8B
:104D400002208DF8070000208DF8040002208DF865
:104D500006008020009000208DF805006946134869
:104D6000FDF7AAF9002302224FF4E1211048FFF7D2
:104D700087F801210E48FFF704F901210C48FFF7DD
:104D8000FBF801210A48FFF7D1F801210848FFF795
:104D90003AF801210648FFF731F800210448FFF7EF
:104DA0003CF801210248FFF733F81CBD0004024023
:104DB000001001401CB56846FDF774F90722022176
:104DC0002748FDF7BFF902208DF8070000208DF875
:104DD000040002208DF806000420009000208DF8C9
:104DE000050069461E48FDF767F9072203211C48A4
:104DF000FDF7A8F902208DF8070000208DF80400C7
:104E000002208DF806000820009000208DF8050093
:104E100069461348FDF750F9002301224FF4612140
:104E20001048FFF72DF801210E48FFF7AAF80121DD
:104E30000C48FFF7A1F800210A48FFF777F8012195
:104E40000848FEF7E0FF01210648FEF7D7FF0021E2
:104E50000448FEF7E2FF01210248FEF7D9FF1CBD1E
:104E600000000240004400401CB56846FDF71AF9F6
:104E700007220A212748FDF765F902208DF807006F
:104E800000208DF8040002208DF8060040020090FA
:104E900000208DF8050069461E48FDF70DF9072230
:104EA0000B211C48FDF74EF902208DF80700002069
:104EB0008DF8040002208DF806008002009000208A
:104EC0008DF8050069461348FDF7F6F80023022225
:104ED0004FF4E1211048FEF7D3FF01210E48FFF700
:104EE00050F801210C48FFF747F801210A48FFF765
:104EF0001DF801210848FEF786FF01210648FEF74C
:104F00007DFF00210448FEF788FF01210248FEF7DB
:104F10007FFF1CBD000402400048004081F00041BA
:104F2000704780F00040704721F00041704720F04A
:104F30000040704721F00042A2F16052B2F5801F9C
:104F400001F0004328BFD2F17F6C0BD95FEA001C4F
:104F500043EAC20242EB507018BF704728BF20F0EE
:104F600001007047B2F5801FBCBF184670474FEA7A
:104F7000410C1CF5001F02D2084600F0FDBC70B5C4
:104F800000F010FB00000089FFF7F6BF4FF0004073
:104F9000A0F580007047000010B591EA030F48BFEC
:104FA00083F0004300F19083841A71EB030C05D267
:104FB000121943EB0C03001B61EB0C01DFF824E139
:104FC0004FEA1154A4EB135C1EEA430F18BF9EEA8C
:104FD000445F73D023EA0E03DCF1200E21EA045172
:104FE00043F4801332D322FA0CFE10EB0E0023FAA6
:104FF0000CFE41EB0E01CCF1200E03FA0EFE10EB7D
:105000000E0051F10001B1F5801FCCF1200E32D21B
:1050100001EB045112FA0EF2BDE8104058BF704780
:10502000401C38BF5FEA420218BF7047002814BF17
:1050300020F0010041F100014FEA410313F5001F88
:1050400038BF7047A1F1C04100F0FABA012A43EB22
:105050000302ACF1200CDCF11F0E32BF4FF0000E4A
:1050600023FA0CF310EB030041EB0451B4EB115F96
:10507000D0D0A1EB045101F5801149085FEA30005E
:1050800001EB04510ED350F1000038BF12FA0EFEAE
:1050900008D1BDE81040C9E7401C38BF5FEA4202B2
:1050A000CAD1C3E7BDE810404FEA410313F5001F22
:1050B00038BF7047A1F1C04100F0C2BA9EEA445F18
:1050C00008D011EA5E0FBDE8104004BF01F00041B6
:1050D00000207047BDE8104070B500F063FA00BFD3
:1050E00064FBBE3E0000E0FF491058BFC1F14041E3
:1050F0005B1058BFC3F140438B42EFF30080704711
:105100002DE9C04130B4DFF8A0C23CEA111418BF49
:105110003CEA131400F0EC8081EA03051CEA111448
:1051200044EAD57418BF1CEA131500F0C780A4EB3D
:1051300005044FF0004545EAC12145EAC32341EA91
:10514000505143EA525304F17F74994204F50034FC
:105150004FEAC0204FEAC22208BF904200F09C8074
:105160004FEA13650FF24016765D4FEA134506FBD2
:1051700005F7C7F1807706FB07F74FEAD737A7FB9C
:1051800003687642C8F58038A7FB06CE38BFA8F181
:10519000010807FB08E64FF0000EA6FB028CE6FBB9
:1051A00003CEDCF1000CCEF1004E38BFAEF1010EA3
:1051B000A6FB0C584FF000074FF00005E6FB0E87EA
:1051C000A1FB08C6A0FB07CE16EB0E0645F10005B5
:1051D000E1FB076515F1E04E7EBFA4F580345FEA80
:1051E00046066D4116F1800745F100054FEA172785
:1051F0004FEA066647EA0567A6F1DE46B6F1805F2C
:105200004FEA15251FD9384624F0010C05EBC4716F
:10521000BCF1FE6F01EB0C1102D8F0BCBDE80081BF
:1052200024425CBF01F5801E9EEAC47F02D4F0BC1C
:10523000BDE80081244238D4F0BCA1F1C041BDE8F2
:10524000004100F0FDB94FEAD22242EA43524FEA50
:10525000D323A7FB02864FEAD02040EA415007FB48
:1052600003661EEA0E0F4FEAD12105FB026658BF06
:10527000A6EB0056B6EB00564FEA520E4EEAC37E3E
:1052800018EB0E0E56EB530EBDD518EB02085E411F
:105290007F1C55F10005B6E74FF480154FF000076D
:1052A0004FF000064FF00008ADE7F0BC4FF00000F3
:1052B00001F1C04101F00041BDE8008111EA0C1F7D
:1052C0000CEA131500D00CE013EA0C1F00F0258047
:1052D0004FF00000F0BC81EA030101F00041BDE89D
:1052E0000081F0BCBDE8004181EA030100F0A8B9EB
:1052F000F0BCBDE8004170B500F054F9097EFC3EF9
:1053000000F007B881EA03014FF0000001F000410E
:10531000704781EA030100F093B9F0BCBDE8004199
:105320004FF0000021497047FFFDFBF9F7F5F4F25B
:10533000F0EEEDEBE9E8E6E4E3E1E0DEDDDBDAD830
:10534000D7D5D4D3D1D0CFCDCCCBCAC8C7C6C5C48E
:10535000C2C1C0BFBEBDBCBBBAB9B8B7B6B5B4B3A5
:10536000B2B1B0AFAEADACABAAA9A8A8A7A6A5A490
:10537000A3A3A2A1A09F9F9E9D9C9C9B9A99999854
:105380009797969595949393929191908F8F8E8EF7
:105390008D8C8C8B8B8A8989888887878685858484
:1053A00084838382828181800000FF070000F87F70
:1053B000B0FA80F310FA03F10AD0C3F11D0303F52C
:1053C00080634FEA41504FEA035202EBD12170470C
:1053D0004FF000007047000051EA030C17D41CF591
:1053E000801F58BFBCF5801F00F10680994218BF8E
:1053F000704708BF9042704707D711F5801F58BF0C
:1054000013F5801F19D499427047894270471CF5E3
:10541000801F08D5BCF5801FF7D58B4218BF704799
:1054200008BF824270474FF4001C1CEB410F38BF8D
:105430001CEB430F01D28B42704770B500F0B2F8FD
:10544000922449004FF000514FF08053FFF74CBEBB
:10545000DFF848C170B51CEA111E1EBF1CEA131507
:105460009EEA0C0F95EA0C0F00F06F8081EA0304AE
:1054700023EA4C134EEAD47E21EA4C1141F4801108
:1054800043F48013AE44A1FB024CA0FB0365AEF1D4
:105490007F7E361955EB0C05A1FB034C4CF1000344
:1054A000A0FB021C16EB0C06654153F100030942F8
:1054B00018BF46F0010613F4007F0BD14FEA033109
:1054C0004FEA0530340341EA155140EA16506FF0B7
:1054D00003020AE04FEAC3214FEAC520F40241EA81
:1054E000555140EA56506FF0020202EB2E4201EB9A
:1054F000025585EACE710AD05FEA440C18BF24F049
:10550000004450F1000041F1000120EAD47040F263
:10551000FE7C624500D270BDA84214BF4FF08044AB
:105520004FF04044002E08BF0024BEF1806FA8BF9A
:10553000A1F1C041BDE8704080F282804FF00000D0
:1055400001F1C04101F0004170479EEA0C0F0CEAE6
:10555000131518BF95EA0C0F06D04FF0000081EA32
:10556000030E0EF0004170BD00F01CF88900013EF2
:1055700000F007B800F009B84FEA430C5FEA5C5C42
:1055800008D081EA030100F05BB84FEA410C5FEA02
:105590005C5CF6D14FF00000014970470000FF0746
:1055A0000000F87F0EF1020E2EF0030E5EF8046B81
:1055B000364205D4012A43EB030515F5001F12D826
:1055C000012841EB010C1CF5001F0CD80ED14FEA4D
:1055D000D17C15F5001F0CEB4C0C0CF1020C08BF34
:1055E0004CEBD37C04E04FF0080C01E04FEAD37C95
:1055F0000CEB4C0526FA05F606F00706B6F1040C8E
:1056000006D20EEB860CBDE870404CF0010C6047F2
:10561000DFE80CF0090B02024FF000414FF00000F0
:10562000A1F5002170BD19461046012851EB010477
:1056300018BFD4F5001484BF002001F0004170BDF4
:105640000808A0F500114FEA3101704753EA010C38
:1056500017D41CF5801F58BFBCF5801F00F10680D1
:105660008B4218BF704708BF8242704707D713F5B7
:10567000801F58BF11F5801F19D48B4270479B4281
:1056800070471CF5801F08D5BCF5801FF7D59942DF
:1056900018BF704708BF904270474FF4001C1CEBC6
:1056A000430F38BF1CEB410F01D2994270470FB432
:1056B0000CBC03BCFFF7C1BE10B591EA030F48BF95
:1056C00083F000433FF570AC841A71EB030C07D2F2
:1056D00012198CF0004C43EB0C03001B61EB0C0126
:1056E000DFF8A4E14FEA1154A4EB135C1EEA430F68
:1056F00018BF9EEA445F00F0B08023EA6E03524276
:1057000021EA0451C3EB6E0338BF5B1EDCF1200EAF
:1057100025D322FA0CFE10EB0E0043FA0CFE41EBEF
:105720000E01CCF1200E03FA0EFE10EB0E0051F12B
:105730000001CCF1200E29D412FA0EF201EB045133
:10574000BDE8104058BF7047401C1CBFB2F1004F6D
:10575000704700280CBF491C20F00100704712EB75
:10576000020E43EB030218BF4FF0010E4EEA420255
:10577000ACF1200CDCF11E0E54D943FA0CFE10EBF8
:105780000E0051F1FF31CCF11E0ED5D50EF1010EF8
:1057900012FA0EFE404141EB010101EB445C5FEA6D
:1057A0005C5C10D910EBDE7001EB045138BFBEF128
:1057B000004FBDE8104018BF704700280CBF491CBF
:1057C00020F00100704730D24FEAD42C11F50011BF
:1057D00024F400641BD0B1FA81F20B3AA41AA41E7F
:1057E000D2F12003914030FA03F31943904001EBCA
:1057F000CC71002C01EB0451BDE81040A8BF7047EC
:1058000001F1C0414FF0000001F000417047B0FAD3
:1058100080F310FA03F100D110BDE41A173C4805DB
:10582000C90AE4E701EB045110BD491001EB045132
:10583000BDE810404FEA300002E04FF00001704731
:105840004A0008BF0042F8D0B2F5001F28BF7047D9
:1058500001F000414FF0000070479EEA445F07D01E
:1058600011EA5E0FBDE8104004BF00210020704720
:10587000BDE8104070B5FFF795FE00BF40DFF63E73
:1058800083F00041104670470000E0FF43004FEAFC
:10589000D30C4FEA3C0C43401FBF40070CF1605152
:1058A00013F0FE4F70471CF0006F03D100200CF086
:1058B000004170470CF0004343EA507010B540EAD5
:1058C000CC0000F00EF800BF000000924FEA00018B
:1058D000FFF7B6BE4FF000414FF00000A1F50021E8
:1058E00070470EF1020E2EF0030E5EF8044B2442B8
:1058F00004D44FEA4102B2F17F4F11D84FEA40037E
:10590000B3F17F4F0CD80ED14FEAD07CB2F17F4F6C
:105910000CEB4C0C0CF1020C08BF4CEBD17C04E0FE
:105920004FF0080C01E04FEAD17C0CEB4C0324FA59
:1059300003F404F00704B4F1040C06D20EEB840C5B
:10594000BDE810404CF0010C6047DFE80CF00708A0
:1059500002024FF00040A0F5800010BD0846420052
:1059600018BFD2F1807288BF00F0004010BD4FF028
:105970004070E1EE100A7047FF2141EAD050C005A7
:105980007047000000000000000001020304060749
:1059900008090000000001020304000000000102E9
:1059A00003040102040810200000000000000000B1
:1059B0000102030406070809010204081020000080
:1059C000E0590008000000209C0000004802000888
:1059D0007C5A00089C000020DC0F000064020008D4
:1059E00000000000000000000000000000000000B7
:1059F00000000000000000000000000000000000A7
:105A000000000000000000000000000000127A000A
:105A100001000000FFFFFFFF000000000000000089
:105A20000000000000000000000000000000000076
:105A30000000000000000000000000000000000066
:105A40000000000000000000000000000000000056
:105A50000000000000000000000000000000000046
:105A60000000803F9A99993ECDCCCC3D00000000CB
:0C5A700000000000000000000000003FEB
:040000050800020DE0
:00000001FF
